S0100000636F6D706C6574652E73726563BB
S11300000C94AB000C94C8000C94C8000C94C80069
S11300100C94C8000C94C8000C94C8000C94C8003C
S11300200C94C8000C94C8000C94C8000C94C8002C
S11300300C94C8000C94C8000C94C8000C94C8001C
S11300400C94C8000C94C8000C94C8000C94C8000C
S11300500C94C8006E616E00696E660000407A10F0
S1130060F35A00A0724E18090010A5D4E80000E865
S11300707648170000E40B54020000CA9A3B0000C3
S113008000E1F505000080969800000040420F0052
S11300900000A08601000000102700000000E80313
S11300A0000000006400000000000A0000000000DE
S11300B00100000000002C76D888DC674F0823DF9D
S11300C0C1DFAE59E1B1B796E5E3E453C63AE65170
S11300D0997696E8E6C28426EB898C9B62ED407C97
S11300E06FFCEFBC9C9F40F2BAA56FA5F490055A33
S11300F02AF75C936B6CF9676DC11BFCE0E40D4758
S1130100FEF520E6B500D0ED902E0300943577057A
S11301100080841E080000204E0A000000C80C3332
S11301203333330F986E12831141EF8D2114893BC1
S1130130E65516CFFEE6DB18D1844B381BF77C1D41
S1130140901DA4BBE424203284725E228100C9F194
S113015024ECA1E53D2711241FBECFE5D8E0DEBF86
S1130160CDBF11E0A0E6B0E0E0EFFCE102C00590F5
S11301700D92AC33B107D9F721E0ACE3B1E001C093
S11301801D92AF35B207E1F70E9486050C94760EF6
S11301900C940000813021F488E08093600008957D
S11301A0109260000895382F362B20916000232B85
S11301B022BB90916000932B946092BBEFE8F1E036
S11301C03197F1F700C000008B7F682B80916000AD
S11301D0682B62BB8FE99FE00197F1F700C0000034
S11301E00895CF93C82F60E0807F0E94D30060E021
S11301F08C2F8295807F0E94D300CF91089581E057
S11302000E94CA008FE39CE90197F1F700C0000047
S11302108FEF81BB82E00E94F10088E20E94F1002E
S11302208CE00E94F10086E00E94F10081E00E94CF
S1130230F1000895CF93C82F61E0807F0E94D3001E
S113024061E08C2F8295807F0E94D300CF91089526
S11302500F931F93CF93DF938C01C0E0D0E003C0D2
S11302600E941A012196F801EC0FFD1F8081811173
S1130270F7CFDF91CF911F910F910895CF93DF9323
S1130280EA01613031F058F0623029F0633029F02E
S113029007C090EC05C094E903C094ED01C090E858
S11302A08F70892B0E94F100CE010E942801DF91FA
S11302B0CF9108958FE087BB80EF88BB86B38F60B2
S11302C08095E1F3803249F018F4803161F00CC07C
S11302D0803429F0803829F007C091E005C092E00D
S11302E003C093E001C090E017BA18BA80EF87BB4F
S11302F08FE088BB86B3806F8095823049F018F414
S1130300813061F00CC0843029F0883029F007C0B6
S1130310E1E005C0E2E003C0E3E001C0E0E08FE01B
S113032087BB80EF88BBF0E0EE0FFF1FEE0FFF1FCF
S1130330E55DFE4FE90FF11D808108951F93CF9372
S1130340DF9300D01F92CDB7DEB781E00E94F100A9
S113035041E650E060E080E00E943E012FEF34E38C
S11303608CE0215030408040E1F700C00000198249
S11303701A821B821F921F921F921F921F921F921A
S113038081E990E09F938F938AE491E09F938F9308
S11303900E94F60D4AE451E061E080E00E943E01D3
S11303A04AE251E061E080E00E943E018DE00E945B
S11303B0F1000FB6F894DEBF0FBECDBF10E00E946F
S11303C05A0180935E018A30C8F5E1E0F0E0EC0F59
S11303D0FD1FE10FF11D80832B819A8189811F927A
S11303E02F931F929F931F928F9381E990E09F9385
S11303F08F938AE491E09F938F930E94F60D4AE4D1
S113040051E061E080E00E943E011F5F0FB6F89466
S1130410DEBF0FBECDBF133008F010E04AE251E05A
S113042061E0812F0E943E019FEF21EE34E0915064
S113043020403040E1F700C00000C1CF8E3009F009
S1130440BECF81E00E94F1008CE00E94F10029817E
S11304508A8190E0AC01440F551F880F991F880FC3
S1130460991F880F991F840F951F34E6239F800DD1
S1130470911D11242B81820F911D9093440180932F
S1130480430141E750E060E080E00E943E0180913A
S113049044018F93809143018F9385E990E09F936A
S11304A08F938AE491E09F938F930E94F60D4AE420
S11304B051E061E080E00E943E018FEF99E628E17F
S11304C0815090402040E1F700C0000081E00E948C
S11304D0F1000F900F900F900F900F900F900F90CE
S11304E00F900F90DF91CF911F9108951F93CF9399
S11304F0DF9300D000D0CDB7DEB781E00E94F100D9
S113050042E850E060E080E00E943E012FEF34E3D7
S11305108CE0215030408040E1F700C00000198297
S11305201A821B821C821F921F921F921F921F927B
S11305301F921F921F928FE890E09F938F938AE4FB
S113054091E09F938F930E94F60D4AE451E061E09D
S113055080E00E943E014AE251E061E080E00E94B6
S11305603E018DE00E94F1000FB6F894DEBF0FBE8D
S1130570CDBF10E00E945A0180935E018A30E0F5FD
S1130580E1E0F0E0EC0FFD1FE10FF11D80833C8101
S11305902B819A8189811F923F931F922F931F92DF
S11305A09F931F928F938FE890E09F938F938AE499
S11305B091E09F938F930E94F60D4AE451E061E02D
S11305C080E00E943E011F5F0FB6F894DEBF0FBEAD
S11305D0CDBF143008F010E04AE251E061E0812F11
S11305E00E943E019FEF21EE34E0915020403040C4
S11305F0E1F700C00000BECF8E3009F0BBCF81E030
S11306000E94F1008CE00E94F100498128EE33E061
S1130610429FC001439F900D11242A81AC0134E60E
S1130620239F400D511D11249B81892F90E0BC0113
S1130630660F771F9C01220F331F220F331F220FD7
S1130640331FCB01820F931F840F951F2C81820FC0
S1130650911D909342018093410148E950E060E08C
S113066080E00E943E01809142018F93809141017C
S11306708F9385E990E09F938F938AE491E09F9311
S11306808F930E94F60D4AE451E061E080E00E94FD
S11306903E018FEF99E628E1815090402040E1F738
S11306A000C0000081E00E94F1000F900F900F90B5
S11306B00F900F900F900F900F900F900F90DF916D
S11306C0CF911F9108951F93CF93DF9300D000D053
S11306D0CDB7DEB781E00E94F10046EA50E060E069
S11306E080E00E943E012FEF34E38CE02150304043
S11306F08040E1F700C0000019821A821B821C822C
S11307001F921F921F921F921F921F921F921F925D
S11307108FE890E09F938F938AE491E09F938F9367
S11307200E94F60D4AE451E061E080E00E943E013F
S11307304AE251E061E080E00E943E018DE00E94C7
S1130740F1000FB6F894DEBF0FBECDBF10E00E94DB
S11307505A0180935E018A30E0F5E1E0F0E0EC0FAD
S1130760FD1FE10FF11D80833C812B819A818981DA
S11307701F923F931F922F931F929F931F928F93C9
S11307808FE890E09F938F938AE491E09F938F93F7
S11307900E94F60D4AE451E061E080E00E943E01CF
S11307A01F5F0FB6F894DEBF0FBECDBF143008F044
S11307B010E04AE251E061E0812F0E943E019FEF88
S11307C021EE34E0915020403040E1F700C00000B9
S11307D0BECF8E3009F0BBCF81E00E94F1008CE0E7
S11307E00E94F100498128EE33E0429FC001439FFB
S11307F0900D11242A81AC0134E6239F400D511D34
S113080011249B81892F90E0BC01660F771F9C0106
S1130810220F331F220F331F220F331FCB01820FEE
S1130820931F840F951F2C81820F911D909340017B
S113083080933F0144EB50E060E080E00E943E0181
S1130840809140018F9380913F018F9380EC90E0E1
S11308509F938F938AE491E09F938F930E94F60D68
S11308604AE451E061E080E00E943E018FEF94E3AE
S11308702CE0815090402040E1F700C0000081E06E
S11308800E94F1000F900F900F900F900F900F9017
S11308900F900F900F900F90DF91CF911F910895BB
S11308A025B330E1839FC00111242F7E822B85BBA9
S11308B020E030E014C085B3886085BB8FEC97E0FE
S11308C00197F1F700C0000085B3877F85BB8FECEB
S11308D097E00197F1F700C000002F5F3F4F261704
S11308E0370748F3089525B330E1839FC0011124ED
S11308F02F7E822B85BB20E030E014C085B384605A
S113090085BB8FEC97E00197F1F700C0000085B339
S11309108B7F85BB8FEC97E00197F1F700C0000057
S11309202F5F3F4F2617370748F3089525B330E16B
S1130930839FC00111242F7E822B85BB20E030E0F1
S113094014C082B3886082BB8FEC97E00197F1F703
S113095000C0000082B3877F82BB8FEC97E00197D1
S1130960F1F700C000002F5F3F4F2617370748F309
S1130970089597B1907F8F70892B87B986B1806471
S113098086B93699FECF84B195B10895CF92DF929E
S1130990EF92FF9210923E0110923D0110923C01A1
S11309A080E033C095B3916095BB9AE19A95F1F7D5
S11309B000C0999B11C047E050E0481B510921E059
S11309C030E002C0220F331F4A95E2F790913E01B6
S11309D0292B20933E0111C047E050E0481B5109E8
S11309E021E030E002C0220F331F4A95E2F7209540
S11309F090913E01292320933E0195B39E7F95BBA0
S1130A009DE09A95F1F700008F5F883058F280E0FE
S1130A103EC095B3916095BB9AE19A95F1F700C0F9
S1130A20999B16C04FE050E0481B510921E030E08B
S1130A3002C0220F331F4A95E2F740913C015091C6
S1130A403D01242B352B30933D0120933C0117C0ED
S1130A504FE050E0481B510921E030E002C0220F72
S1130A60331F4A95E2F72095309540913C0150910F
S1130A703D012423352330933D0120933C0195B35C
S1130A809E7F95BB9DE09A95F1F700008F5F8031C2
S1130A9008F4BFCF80913C0190913D0196958795D4
S1130AA090933D0180933C0160913E0160FF05C03D
S1130AB0906890933D0180933C01669560933E015C
S1130AC070E080E090E00E94F60724E632EA48E60F
S1130AD050E40E9487086B017C0160913C01709195
S1130AE03D0180E090E00E94F40723E33BED4CE8F5
S1130AF056E40E9453079B01AC01C701B6010E9452
S1130B00E706FF90EF90DF90CF9008950E94FF00DA
S1130B1084B38E6F84BB85B38E7F85BB86B18760BB
S1130B2086B987B1806487B986B1806886B90E9426
S1130B305A0180935E018D30D1F744EC50E060E0BF
S1130B4084E00E943E012FEF44E35CE021504040EA
S1130B505040E1F700C0000081E00E94F1000E94D3
S1130B609E010E94760281E00E94F1004CEC50E06C
S1130B7060E080E00E943E0185B3806285BB8FEF18
S1130B8099E628E1815090402040E1F700C0000040
S1130B9085B38F7D85BB64EF71E081E00E945004D2
S1130BA085B3806C85BB81E00E94B90490934801B1
S1130BB08093470180E00E94B904BC0180E090E08A
S1130BC00E94F40728E030E240E05FE30E948708D7
S1130BD00E94C507709346016093450180914801C6
S1130BE08F93809147018F9385ED90E09F938F932E
S1130BF0CAE4D1E0DF93CF930E94F60DAE0160E02A
S1130C0080E00E943E01809146018F9380914501CE
S1130C108F9381EE90E09F938F93DF93CF930E9405
S1130C20F60DAE0161E080E00E943E012091470193
S1130C303091480180914101909142014DB75EB7D6
S1130C40445F5F4F0FB6F8945EBF0FBE4DBF2817C9
S1130C50390708F0A8CF20914501309146018091D1
S1130C604301909144018217930708F09CCF81E0DF
S1130C700E94F1004CEE50E060E080E00E943E01F2
S1130C805FEF83ED90E3515080409040E1F700C066
S1130C90000085B38F7185BB64EF71E081E00E9431
S1130CA0730485B3806285BB2FEF49E658E1215078
S1130CB040405040E1F700C0000085B38F7D85BB04
S1130CC068EE73E080E00E9450040E946303809108
S1130CD040018F9380913F018F938BEF90E09F931E
S1130CE08F938AE491E09F938F930E94F60D4AE4D8
S1130CF051E060E080E00E943E010F900F900F9061
S1130D000F900F900F90E12C0E94C604D62F172F3E
S1130D10082FF92E9F938F937F936F938CE091E02C
S1130D209F938F938AE491E09F938F930E94F60D93
S1130D304AE451E061E080E00E943E018DB79EB735
S1130D4008960FB6F8949EBF0FBE8DBFC0E038C0A2
S1130D508FEC97E00197F1F700C0000068EE73E0B4
S1130D6080E00E94960460913F017091400180E010
S1130D7090E00E94F4079B01AC016D2F712F802F2E
S1130D809F2D0E9482088823D4F081E00E94F10004
S1130D904DE151E060E080E00E943E0164EF71E0CB
S1130DA080E00E9496049FEF29E648E1915020409C
S1130DB04040E1F700C00000EE24E39403C0CF5F9D
S1130DC0C43630F2EE2009F49FCF7FCF5058BB27B2
S1130DD0AA270E94FE060C9448080E943A0838F09C
S1130DE00E94410820F039F49F3F19F426F40C9432
S1130DF037080EF4E095E7FB0C943108E92F0E94C4
S1130E00590858F3BA17620773078407950720F047
S1130E1079F4A6F50C947B080EF4E0950B2EBA2F0A
S1130E20A02D0B01B90190010C01CA01A0011124EC
S1130E30FF27591B99F0593F50F4503E68F11A1698
S1130E40F040A22F232F342F4427585FF3CF469529
S1130E5037952795A795F0405395C9F77EF41F164B
S1130E60BA0B620B730B840BBAF09150A1F0FF0F15
S1130E70BB1F661F771F881FC2F70EC0BA0F621F01
S1130E80731F841F48F4879577956795B795F795F1
S1130E909E3F08F0B0CF9395880F08F09927EE0F86
S1130EA09795879508950E9467070C9448080E94B7
S1130EB0410858F00E943A0840F029F45F3F29F0B5
S1130EC00C94310851110C947C080C9437080E943E
S1130ED0590868F39923B1F3552391F3951B550BE6
S1130EE0BB27AA2762177307840738F09F5F5F4FF9
S1130EF0220F331F441FAA1FA9F335D00E2E3AF038
S1130F00E0E832D091505040E695001CCAF72BD04F
S1130F10FE2F29D0660F771F881FBB1F26173707A0
S1130F204807AB07B0E809F0BB0B802DBF01FF27D2
S1130F3093585F4F3AF09E3F510578F00C94310876
S1130F400C947C085F3FE4F3983ED4F38695779540
S1130F506795B795F7959F5FC9F7880F911D96958B
S1130F60879597F90895E1E0660F771F881FBB1FE7
S1130F70621773078407BA0720F0621B730B840B94
S1130F80BA0BEE1F88F7E09508950E94610888F077
S1130F909F5798F0B92F9927B751B0F0E1F0660F39
S1130FA0771F881F991F1AF0BA95C9F714C0B1307A
S1130FB091F00E947B08B1E008950C947B08672FA0
S1130FC0782F8827B85F39F0B93FCCF386957795A9
S1130FD06795B395D9F73EF4909580957095619592
S1130FE07F4F8F4F9F4F0895E89409C097FB3EF4BD
S1130FF090958095709561957F4F8F4F9F4F992362
S1131000A9F0F92F96E9BB279395F69587957795DF
S11310106795B795F111F8CFFAF4BB0F11F460FF9F
S11310201BC06F5F7F4F8F4F9F4F16C0882311F0F7
S113103096E911C0772321F09EE8872F762F05C00B
S1131040662371F096E8862F70E060E02AF09A95A6
S1131050660F771F881FDAF7880F9695879597F99B
S1131060089597F99F6780E870E060E008959FEF26
S113107080EC089500240A9416161706180609062B
S1131080089500240A9412161306140605060895FA
S1131090092E0394000C11F4882352F0BB0F40F482
S11310A0BF2B11F460FF04C06F5F7F4F8F4F9F4FC2
S11310B0089557FD9058440F551F59F05F3F71F044
S11310C04795880F97FB991F61F09F3F79F08795AB
S11310D00895121613061406551FF2CF4695F1DF34
S11310E008C0161617061806991FF1CF86957105C4
S11310F0610508940895E894BB2766277727CB01F8
S113110097F908950E94F40808F48FEF08950E9457
S11311109A080C9448080E943A0838F00E94410842
S113112020F0952311F00C9431080C943708112405
S11311300C947C080E94590870F3959FC1F3950F95
S113114050E0551F629FF001729FBB27F00DB11D47
S1131150639FAA27F00DB11DAA1F649F6627B00DD7
S1131160A11D661F829F2227B00DA11D621F739FC0
S1131170B00DA11D621F839FA00D611D221F749FCE
S11311803327A00D611D231F849F600D211D822F15
S1131190762F6A2F11249F5750409AF0F1F088233C
S11311A04AF0EE0FFF1FBB1F661F771F881F915069
S11311B05040A9F79E3F510580F00C9431080C94DF
S11311C07C085F3FE4F3983ED4F386957795679562
S11311D0B795F795E7959F5FC1F7FE2B880F911D93
S11311E09695879597F90895990F0008550FAA0BBE
S11311F0E0E8FEEF16161706E807F907C0F0121626
S11312001306E407F50798F0621B730B840B950B28
S113121039F40A2661F0232B242B252B21F408957D
S11312200A2609F4A140A6958FEF811D811D08951A
S1131230A0E1B0E0EEE1F9E00C94950C7C011B0117
S11312406A01FC0117821682838181FF44C39E01D7
S11312502F5F3F4F3901F7019381F10193FD859190
S113126093FF81911F01882309F431C3853239F436
S113127093FD859193FF81911F01853239F4B70164
S113128090E00E94BA0D56016501E5CF10E0512CA3
S1131290912CFFE1F915D8F08B3279F038F48032D3
S11312A079F08332A1F4F92DF0612EC08D3261F012
S11312B0803369F4292D21602DC0392D3260932E9D
S11312C0892D8460982E2AC0E92DE86015C097FC0A
S11312D02DC020ED280F2A3088F496FE06C03AE08F
S11312E0139F200D1124122F19C08AE0589E200D3F
S11312F01124522EE92DE0629E2E10C08E3231F45C
S113130096FCE5C2F92DF0649F2E08C08C3621F4BA
S1131310292D2068922E02C0883641F4F10193FDF4
S1131320859193FF81911F018111B3CF9BEB980F9E
S1131330933020F4992D9061805E07C09BE9980F4B
S1131340933008F066C1992D9F7E96FF16E09F7337
S1131350992E853619F49064992E08C0863621F4A6
S1131360392F3068932E02C01111115097FE07C017
S11313701C3350F444244394410E27E00BC018302E
S113138038F027E017E005C027E09CE3492E02C0AF
S1131390212F412C560184E0A80EB11CF601608176
S11313A0718182819381042DA3010E94CC0C6C0174
S11313B0F981FC87F0FF02C0F3FF06C091FC06C070
S11313C092FE06C000E205C00DE203C00BE201C0BC
S11313D000E08C858C7019F001115AC29BC297FEF3
S11313E010C04C0CFC85F4FF04C08A81813309F4DD
S11313F04A94141474F528E0241578F588E0482EEE
S11314002CC096FC2AC0812F90E08C159D059CF081
S11314103CEFC3163FEFD30674F0892D8068982EF5
S11314200AC0E2E0F0E0EC0FFD1FE10FF11D808146
S1131430803319F411501111F4CF97FE0EC04424D7
S11314404394410E812F90E0C816D9062CF41C1940
S113145004C04424439401C010E097FE06C01C1449
S11314601D0434F4C601019605C085E090E002C075
S113147081E090E001110196112331F0212F30E039
S11314802F5F3F4F820F931F252D30E08217930764
S113149014F4581A01C0512C892D897049F455202F
S11314A039F0B70180E290E00E94BA0D5A94F7CF68
S11314B0002329F0B701802F90E00E94BA0D93FC1D
S11314C009C0552039F0B70180E390E00E94BA0DBD
S11314D05A94F7CF97FE4CC04601D7FE02C0812C28
S11314E0912CC60188199909F301E80FF91FFE87A9
S11314F0ED87960124193109388B2F87012F10E0CD
S11315001195019511093FEF8316930629F4B7014C
S11315108EE290E00E94BA0DC814D9044CF08F8575
S113152098898815990524F4ED85FE85818101C08B
S113153080E3F1E08F1A91082D853E852F5F3F4FA0
S11315403E872D87801691062CF0B70190E00E940B
S1131550BA0DD9CFC814D90441F49A81963320F432
S1131560953319F43C8534FF81E3B70190E04EC014
S11315708A81813319F09C859F7E9C87B70190E016
S11315800E94BA0D111105C094FC18C085E690E0C4
S113159017C0B7018EE290E00E94BA0D1E5F82E090
S11315A001E0080FF301E80FF11D8081B70190E01D
S11315B00E94BA0D802F0113F3CFE6CF85E490E0AB
S11315C0B7010E94BA0DD7FC06C0C114D10441F47E
S11315D0EC85E4FF05C0D194C194D1088DE201C02B
S11315E08BE2B70190E00E94BA0D80E32AE0C216B4
S11315F0D1042CF08F5FFAE0CF1AD108F7CFB701EE
S113160090E00E94BA0DB701C601C0960E94BA0DBF
S113161054C1833631F0833779F0833509F056C0ED
S113162020C0560132E0A30EB11CF60180818983EB
S113163001E010E0630112C05601F2E0AF0EB11CEC
S1131640F601C080D18096FE03C0612F70E002C015
S11316506FEF7FEFC6010E94AF0D8C01F92DFF776C
S113166014C0560122E0A20EB11CF601C080D18044
S113167096FE03C0612F70E002C06FEF7FEFC601DA
S11316800E94A40D8C01F92DF0689F2EF3FD1AC061
S1131690852D90E008171907A8F4B70180E290E0BF
S11316A00E94BA0D5A94F4CFF60197FC859197FEE7
S11316B081916F01B70190E00E94BA0D51105A94C4
S11316C0015011090115110579F7F7C0843611F09D
S11316D0893661F5560197FE09C024E0A20EB11CBB
S11316E0F60160817181828193810AC0F2E0AF0EBC
S11316F0B11CF60160817181072E000C880B990BD7
S1131700F92DFF769F2E97FF09C0909580957095CF
S113171061957F4F8F4F9F4FF0689F2E2AE030E0F6
S1131720A3010E94180EC82EC6183FC0092D853784
S113173021F40F7E2AE030E01DC0097F8F3691F03E
S113174018F4883559F0C3C0803719F0883711F080
S1131750BEC0006104FF09C0046007C094FE08C055
S1131760066006C028E030E005C020E130E002C099
S113177020E132E0560107FF09C084E0A80EB11C45
S1131780F601608171818281938108C0F2E0AF0E1D
S1131790B11CF6016081718180E090E0A3010E9498
S11317A0180EC82EC6180F77902E96FE0BC0092D62
S11317B00E7FC11650F494FE0AC092FC08C0092D95
S11317C00E7E05C0DC2C092D03C0DC2C01C0D12EFB
S11317D004FF0DC0FE01EC0DF11D8081803311F476
S11317E0097E09C002FF06C0D394D39404C0802F9D
S11317F0867809F0D39403FD11C000FF06C01C2DA8
S1131800D51480F4150D1D190DC0D51458F4B70165
S113181080E290E00E94BA0DD394F7CFD51410F46F
S11318205D1801C0512C04FF10C0B70180E390E0A3
S11318300E94BA0D02FF17C001FD03C088E790E0C3
S113184002C088E590E0B7010CC0802F867859F07B
S113185001FF02C08BE201C080E207FD8DE2B70107
S113186090E00E94BA0DC11638F4B70180E390E00D
S11318700E94BA0D1150F7CFCA94F301EC0DF11D7B
S11318808081B70190E00E94BA0DC110F5CF15C058
S1131890F4E0F51560F584E0581A93FE1FC00111B9
S11318A027C02C8523FF2AC004E510E0392D3071B0
S11318B0932EF8018491811124C0552009F4E4CCBD
S11318C0B70180E290E00E94BA0D5A94F6CFF70176
S11318D08681978126C08FEF9FEF23C0B70180E2F6
S11318E090E00E94BA0D5A945110F8CFD8CF512CE1
S11318F0B701802F90E00E94BA0DD3CF08E510E025
S1131900D5CF91108052B70190E00E94BA0D0F5FBD
S11319101F4FCFCF23E0251510F483E0BDCF512C0A
S1131920C0CF6096E2E10C94B10C2F923F924F929B
S11319305F926F927F928F929F92AF92BF92CF925B
S1131940DF92EF92FF920F931F93CF93DF93CDB764
S1131950DEB7CA1BDB0B0FB6F894DEBF0FBECDBFDC
S113196009942A88398848885F846E847D848C84AD
S11319709B84AA84B984C884DF80EE80FD800C81B6
S11319801B81AA81B981CE0FD11D0FB6F894DEBF99
S11319900FBECDBFED010895283008F027E03327AE
S11319A0DA01990F311D87FD91600096610571057B
S11319B039F432602E5F3D9330E32A95E1F70895C0
S11319C09F3F30F080387105610509F03C5F3C5F52
S11319D03D93913008F08068911DDF93CF931F935E
S11319E00F93FF92EF92192F987F9695E92F969572
S11319F09695E90FFF27EA54FF4F99273327EE24E2
S1131A00FF24A701E70105900894079428F4360FF2
S1131A10E71EF81E491F511D660F771F881F991F67
S1131A200694A1F70590079428F4E70EF81E491FC1
S1131A30561FC11D770F881F991F661F0694A1F7B3
S1131A400590079428F4F80E491F561FC71FD11D8F
S1131A50880F991F661F771F0694A1F705900794B6
S1131A6020F4490F561FC71FD81F990F661F771FF1
S1131A70881F0694A9F784911095177041F0D695A4
S1131A80C79557954795F794E7941A95C1F7ECE5F0
S1131A90F0E06894159015913591659195910590B4
S1131AA07FE27395E118F10A430B560BC90BD00979
S1131AB0C0F7E10CF11E431F561FC91FD01D7EF451
S1131AC0703311F48A95E6CFE894015030F0080F92
S1131AD00AF40027021708F4202F2395022F7A33E3
S1131AE028F079E37D932A95E9F710C07D932A9530
S1131AF089F6069497956795379517951794E11885
S1131B00F10A430B560BC90BD00998F023957E912B
S1131B1073957A3308F070E37C932013B8F77E91C1
S1131B2070617D9330F0839571E37D9370E32A9522
S1131B30E1F71124EF90FF900F911F91CF91DF9166
S1131B40992787FD90950895FC0105906150704098
S1131B500110D8F7809590958E0F9F1F0895FC0172
S1131B606150704001900110D8F7809590958E0FC8
S1131B709F1F08950F931F93CF93DF93FB0123813E
S1131B8021FD03C08FEF9FEF2CC022FF16C04681BA
S1131B905781248135814217530744F4A081B181D0
S1131BA09D012F5F3F4F318320838C9326813781A2
S1131BB02F5F3F4F3783268314C08B01EC01FB0159
S1131BC00084F185E02D0995892BE1F6D80116965C
S1131BD08D919C911797019617969C938E931697C7
S1131BE0CE01DF91CF911F910F910895AEE0B0E047
S1131BF0ECEFFDE00C94A30C0D891E8986E08C8328
S1131C001A8309838FEF9FE79E838D83AE01475E1E
S1131C105F4F6F89788DCE0101960E941809EF817C
S1131C20F885E00FF11F10822E96E4E00C94BF0CAF
S1131C30FA01AA27283051F1203181F1E8946F93F9
S1131C406E7F6E5F7F4F8F4F9F4FAF4FB1E03ED09F
S1131C50B4E03CD0670F781F891F9A1FA11D680F3D
S1131C60791F8A1F911DA11D6A0F711D811D911D70
S1131C70A11D20D009F468943F912AE0269F1124E5
S1131C803019305D3193DEF6CF010895462F477049
S1131C90405D4193B3E00FD0C9F7F6CF462F4F70A4
S1131CA0405D4A3318F0495D31FD4052419302D002
S1131CB0A9F7EACFB4E0A6959795879577956795A8
S1131CC0BA95C9F700976105710508959B01AC01A8
S1131CD00A2E06945795479537952795BA95C9F7CF
S1131CE0620F731F841F951FA01D0895F894FFCFE2
S1131CF0015365742074656D7065726174757265E5
S1131D000054656D706572617475726520736574D5
S1131D102100536574204D6F6973747572650025D5
S1131D2075257525752575004D6F69737475726514
S1131D30207365742100536574205765696768745E
S1131D4028672900576569676874207365742100E2
S1131D502575670057656C636F6D65005374617218
S1131D6074696E67004D6F6973742E202530347565
S1131D700054656D70202530337543004C696D69DE
S1131D8074732052656163686564006C696D69747D
S1131D9020202025312E3366206B67005265616454
S1131DA0696E672025312E3366206B670050726F91
S1131DB06365737320646F6E6521000708090A0464
S10F1DC005060B0102030C0D000E0F00C1
S9030000FC
